:020000040800F2
:100000000807002089010008A3100008850F0008D8
:10001000A11000088F0200087B13000800000000F8
:10002000000000000000000000000000A710000811
:100030009102000800000000A5100008A9100008A7
:10004000A3010008A3010008A3010008A301000800
:10005000A3010008A3010008A3010008A3010008F0
:10006000A3010008A3010008A3010008A3010008E0
:10007000A3010008A3010008A3010008A3010008D0
:10008000A3010008A3010008A3010008A3010008C0
:10009000A3010008A3010008A3010008A3010008B0
:1000A000A3010008A3010008A3010008A3010008A0
:1000B000A3010008A3010008A3010008A301000890
:1000C000A3010008A3010008A3010008A301000880
:1000D000A3010008A3010008A3010008A301000870
:1000E000A3010008A3010008A301000800F002F822
:1000F00000F03AF80AA090E8000C82448344AAF188
:100100000107DA4501D100F02FF8AFF2090EBAE885
:100110000F0013F0010F18BFFB1A43F0010318473B
:10012000F012000010130000103A24BF78C878C104
:10013000FAD8520724BF30C830C144BF04680C60ED
:10014000704700000023002400250026103A28BF35
:1001500078C1FBD8520728BF30C148BF0B60704739
:100160001FB51FBD10B510BD00F058F81146FFF7C0
:10017000F7FF01F013F900F076F803B4FFF7F2FF90
:1001800003BC00F07DF8000009488047094800479B
:10019000FEE7FEE7FEE7FEE7FEE7FEE7FEE7FEE737
:1001A000FEE7FEE704480549054A064B7047000094
:1001B000FD100008ED0000080801002008070020DD
:1001C00008030020080300204FF0000200B513468A
:1001D00094469646203922BFA0E80C50A0E80C5067
:1001E000B1F12001BFF4F7AF090728BFA0E80C5018
:1001F00048BF0CC05DF804EB890028BF40F8042B11
:1002000008BF704748BF20F8022B11F0804F18BF7D
:1002100000F8012B7047704770477047754600F033
:100220002BF8AE4605006946534620F00700854688
:1002300018B020B5FFF7B6FFBDE820404FF000062C
:100240004FF000074FF000084FF0000B21F00701BE
:10025000AC46ACE8C009ACE8C009ACE8C009ACE801
:10026000C0098D46704710B50446AFF300802046A4
:10027000BDE81040FFF781BF00487047A400002090
:1002800001491820ABBEFEE7260002007047FEE7DA
:10029000704700002DE9F84FDFF8B891002409F10C
:1002A000040A0AF1040B23460F270BF1040EC9E0E0
:1002B0000125A5402A40AA427DD1674ED1F804C04D
:1002C000ACEB0608B44532D014DCBCF1030F3AD0D5
:1002D00009DCBCF1000F2AD0BCF1010F1CD0BCF12D
:1002E000020F31D11DE0BCF1110F17D0BCF1120F7C
:1002F0002AD119E0B8F5881F19D006DCB8F5803F7F
:1003000015D0B8F5801F1FD111E0B8F5001F0ED031
:10031000B8F5041F18D10AE0CB6815E0CB681B1DA7
:1003200012E0CB6808330FE0CB680C330CE08B682D
:100330002BB1012B4FF0080303D0456104E00423E7
:1003400002E0056100E00023FF2A01D8064601E033
:1003500000F104064FEA840501D9A5F12005D6F87D
:10036000008007FA05FC28EA0C0803FA05F548EABC
:100370000508C6F800804D68ED0062D5374DAE69BE
:1003800046F00106AE61AD6924F0030605F00105F3
:100390000095334D06EB050CDCF80850A607360F28
:1003A00007FA06F825EA0805DFF8B880404503D1CA
:1003B0004FF0000817E044E0DFF8AC80404502D180
:1003C0004FF001080FE0DFF8A480404502D14FF064
:1003D000020808E0DFF89880404502D14FF003089A
:1003E00001E04FF0040808FA06F848EA0508CCF8DE
:1003F00008804D68D9F80060ED034D4601D51643DD
:1004000000E096432E604D68DAF80060AD03554673
:1004100001D5164300E096432E604D68DBF800607E
:10042000ED025D4601D5164300E096432E604D680F
:10043000DEF80060AD02754601D5164300E0964334
:100440002E60641C0D682A46E5407FF431AFBDE89C
:10045000F88F00000004014000001110001002405D
:100460000000014000080140000C01400010014064
:10047000001401400AB1016170470904FBE7000064
:1004800001488068704700000000002070B504003B
:100490001BD094F83D00002520B984F83C5020463C
:1004A00000F0AEF8242084F83D002068016821F0B7
:1004B0000101016000F0F2F94D4A6168914201D8F2
:1004C0004C4900E04C49884201D2012070BD4B49A3
:1004D0002368B0FBF1F15E6826F03F060E435E60D4
:1004E0006368934206D94FF4967359434FF47A7375
:1004F000B1FBF3F12368491C1E6A26F03F06314325
:1005000019626168914210D84900401EB0FBF1F2B7
:10051000521CC2F30B02042A01D2042022E0B0FBD9
:10052000F1F0401CC0F30B001CE0A368F3B301EB37
:10053000C10202EB0116421EB2FBF6F2521C42F45B
:100540008042120549D093B301EBC10202EB0111C5
:10055000401EB0FBF1F0401CC0F30B0040F48040A3
:1005600040F400402168CA694CF6FF739A43104377
:10057000C861D4E90701084321680A6822F0C00273
:1005800010430860D4E9030101432068826848F2FF
:10059000FF339A4311438160D4E905010843216880
:1005A000CA6822F0FF021043C86001E00EE016E0C6
:1005B0002068016841F0010101602564202084F871
:1005C0003D00256384F83E50002070BD01EB4106DC
:1005D000421EB2FBF6F2521CB3E70120C2E701EB68
:1005E0004101401EB0FBF1F0401CC0F30B00B7E727
:1005F000A086010080841E0000093D0040420F00DB
:1006000010B586B00021009101910291039100681C
:100610000F4988421AD10F4CA06940F00800A06130
:10062000A069694600F008000490C02000901220E4
:100630000190032003900848FFF72CFEE06940F486
:100640000010E061E06900F40010049006B010BDF5
:100650000054004000100240000C01400248816834
:10066000027811448160704700000020074810B5EF
:10067000016841F010010160032000F067F80F20CD
:1006800000F006F800F024F8002010BD0020024021
:1006900070B50D4D04464FF47A712878B1FBF0F037
:1006A0000A490968B1FBF0F000F0CEFA48B9102C05
:1006B00007D200222146501E00F028F800206C606E
:1006C00070BD012070BD0000000000200C00002063
:1006D0000C4808B5816941F001018161816901F02F
:1006E00001010091C16941F08051C161C06900F010
:1006F000805000900448416821F0E06141F00071B1
:10070000416008BD0010024000000140F0B40E4BF3
:100710001B680C46C3F30223C3F10705042D00D95F
:100720000425191D072901D2002300E0DB1E012644
:1007300006FA05F1491E214099409E40761E16405A
:100740003143F0BC00F01ABE0CED00E0064900F0A9
:10075000070208684FF6FF03184040EA0220034AE8
:1007600010430860704700000CED00E00000FA053F
:100770002DE9F0470F46050061D0434E306800F088
:100780000700B84209D2306820F0070038433060D3
:10079000306800F00700B84251D128683B4C81070F
:1007A00012D5400703D5606840F4E06060602878A7
:1007B000000703D5606840F4605060606068A96815
:1007C00020F0F000084360602878C00728D06868EF
:1007D000012810D02168022810D0890700292EDABC
:1007E000616821F0030101436160FFF749FE804623
:1007F00041F288390DE021688903EFE78901EDE7CF
:10080000FFF73EFEA0EB0801494502D90320BDE8F1
:10081000F0876068696800F00C00B0EB810FEFD1E1
:10082000306800F00700B8420BD9306820F00700AC
:1008300038433060306800F00700B84201D0012032
:10084000E5E72878400705D56068E96820F4E060AE
:10085000084360602878000706D56068296920F49D
:10086000605040EAC100606000F028F86168084A02
:10087000C1F30311515CC84006490860064800688E
:10088000FFF706FF0020C2E70020024000100240F0
:10089000F81300080C00002004000020044805495B
:1008A00000684968044AC1F30221515CC84070479E
:1008B0000C000020001002400814000812A185B0AE
:1008C0000FC98DE80F0014A0144A00680490516805
:1008D000134801F00C03042B10D0082B0ED1C1F3E8
:1008E0008343C9031DF803000AD5516804AAC1F364
:1008F0004041515C0A4A5043B0FBF1F005B07047EB
:1009000008494843FAE700000203040506070809FE
:100910000A0B0C0D0E0F1010010200000010024017
:1009200000127A0000093D002DE9F84F040070D054
:100930002078C04DC00749D06868C0F38100012805
:1009400007D06868C0F38100022809D16868C00335
:1009500006D52868800339D560680028E7D035E0DF
:100960006068B0F5803F0BD010B1B0F5A02F11D06A
:10097000286820F480302860286820F4802002E075
:10098000286840F480302860606890B1FFF778FDF7
:1009900006460AE0286840F480202860F0E700BF9F
:1009A000FFF76EFD801B642873D828688003F7D595
:1009B0000CE0FFF765FD064605E000BFFFF760FDB0
:1009C000801B6428F0D828688003F7D420789A4EDA
:1009D00080074FF001094FF0000839D5686810F022
:1009E0000C0F07D06868C0F38100022809D168683D
:1009F000C00306D42868800714D52069012808D1CF
:100A000010E02069B0B1C6F80090FFF739FD074645
:100A100005E00AE1FFF734FDC01B0228C4D82868AE
:100A20008007F7D52868616920F0F80040EAC10026
:100A300028600DE0C6F80080FFF722FD074604E0BD
:100A4000FFF71EFDC01B022823D828688007F7D4B3
:100A5000207800072CD57948A169D9B1C0F8009059
:100A6000FFF70EFD074604E0FFF70AFDC01B022852
:100A70000FD8686A8007F7D571484FF4FA510068BB
:100A8000B0FBF1F0009000BF0098411E0091FAD237
:100A90000EE080E0C0F80080FFF7F2FC074604E0BB
:100AA000FFF7EEFCC01B022875D8686A8007F7D4F0
:100AB0002078400760D5E8690027C00008D4E869BD
:100AC00040F08050E861E869012700F08050009014
:100AD0005C480168C90513D40168834641F48071FC
:100AE0000160FFF7CDFC824606E000BFFFF7C8FCBF
:100AF000A0EB0A0064284ED8DBF80000C005F5D54D
:100B0000E06801280AD008B1052813D0286A20F02F
:100B100001002862286A20F0040002E0286A40F000
:100B200001002862E06841F2883B98B1FFF7A8FC19
:100B300082460BE0286A40F004002862EEE700BF1E
:100B4000FFF79EFCA0EB0A0159455AD8286A800796
:100B5000F6D50CE0FFF794FC824605E0FFF790FC29
:100B6000A0EB0A0159454CD8286A8007F6D41FB17A
:100B7000E86920F08050E861E06988B36968C1F3F2
:100B80008101022944D00228C6F8608004D0FFF712
:100B900077FC044638E034E0FFF772FC074604E0D7
:100BA000FFF76EFCC01B02282BD828688001F7D401
:100BB000206AB0F5803F05D16868A16820F4003054
:100BC00008436860D4E908010843696821F4741196
:100BD00008436860C6F86090FFF752FC044606E0E0
:100BE00025E000BFFFF74CFC001B022809D828684D
:100BF0008001F7D51BE000BFFFF742FC001B022875
:100C000002D90320BDE8F88F28688001F4D40EE0F3
:100C10000128F7D06868226A00F48031914204D13B
:100C2000616A00F47010884201D00120EAE70020D8
:100C3000E8E7000000100240000042428004424207
:100C40000C0000200070004010B5401EB0F1807F05
:100C500001D3012010BD4FF0E02460610F21601727
:100C600000F08CFB0020A06107202061002010BD57
:100C700070B590F83C20012A19D0012400F83C4FAF
:100C80000222427050F83C3C5A689D6822F070067F
:100C90000A684968324325F0800529435A6050F8B4
:100CA0003C2C9160447000210170084670BD022008
:100CB00070BD10B5040003D094F83D0010B107E0FA
:100CC000012010BD002084F83C00204600F00CF804
:100CD000022084F83D00211D206800F033FA012035
:100CE00084F83D00002010BD08B50068B0F1804FC9
:100CF00008D10548C16941F00101C161C06900F036
:100D00000100009008BD00000010024070B50446CC
:100D100090F83C00012817D0012584F83C500220AF
:100D200084F83D002068826822F0770222F47F4236
:100D300082600868502830D00DDC20284DD005DCBA
:100D400098B310283BD148E0022070BD302844D031
:100D5000402834D139E0602828D0702806D0B0F57A
:100D6000805F2CD0B0F5005F29D10AE0CB68D1E9D3
:100D70000121206800F029FA2068816841F077019C
:100D800009E0CB68D1E90121206800F01EFA206853
:100D9000816841F48041816011E0CA684968206837
:100DA00000F0C8FA5021206807E016E0CA684968D8
:100DB000206800F0D0FA6021206800F010FA84F872
:100DC0003D50002084F83C0070BDCA684968206826
:100DD00000F0B0FA40212068EFE722680146104693
:100DE000EBE7000000B585B0002100910191029170
:100DF00003910068B0F1804F1BD10F48816941F029
:100E0000040181618069694600F0040004904FF498
:100E1000004000900220019003900848FFF73AFA42
:100E20000748416821F4407141F0E06141F480716C
:100E3000416005B000BD0000001002400008014004
:100E40000000014070B5044690F83C000D460128B2
:100E50000DD0012684F83C60022084F83D0042B1A8
:100E6000042A18D0082A2AD00C2A4DD139E00220B1
:100E700070BD206800F0BCF92068816941F008016C
:100E800081612068816921F00401816120688169A4
:100E90002A69114311E0206800F0D2F920688169C5
:100EA00041F4006181612068816921F48061816180
:100EB000206881692A6941EA0221816124E0206871
:100EC00000F0EAF92068C16941F00801C1612068B9
:100ED000C16921F00401C1612068C1692A69114317
:100EE00011E0206800F004FA2068C16941F4006153
:100EF000C1612068C16921F48061C1612068C16954
:100F00002A6941EA0221C16184F83D60002084F829
:100F10003C0070BD10B5040003D094F83D0010B142
:100F200007E0012010BD002084F83C00204600F0BE
:100F30000CF8022084F83D00211D206800F002F921
:100F4000012084F83D00002010BD704710B5044614
:100F50000068012200F02CF909492068884203D179
:100F6000416C41F4004141642068816801F007014F
:100F7000062903D0016841F001010160002010BD85
:100F8000002C0140FEE7000070B586B000241B482D
:100F90000094019402940394816941F004018161F9
:100FA000816901F004010491816941F008018161C6
:100FB0008069134E00F0080004900022F0213046B2
:100FC000FFF758FA0F2001258DE8310069463046B9
:100FD000FFF760F9F020CDE900050220CDE90240DD
:100FE00069463046FFF756F968038DE831006946D7
:100FF0000448FFF74FF906B070BD00000010024032
:1010000000080140000C014010B58EB00024079488
:10101000089409940A940B941C2168460C94FFF7D9
:10102000D3F81E484FF08041016040F21F31C0E903
:101030000114C721C0E903148461FFF73AFE08B127
:1010400072B6FEE74FF48050079007A91348FFF7E8
:101050005DFE08B172B6FEE71048FFF75BFF08B10E
:1010600072B6FEE70B940BA90C480C94FFF700FE38
:1010700008B172B6FEE76020CDE9000402940022B8
:10108000694606480494FFF7DDFE08B172B6FEE734
:101090000248FFF7A7FE0EB010BD0000640000205C
:1010A000FEE7FEE770477047FFF7D8BA10B590B07B
:1010B00028216846FFF788F814210AA8FFF784F86A
:1010C0000220009001200490102000240590079435
:1010D0006846FFF729FC08B172B6FEE70F20CDE99C
:1010E0000A040C940D9400210AA80E94FFF740FB0B
:1010F000002801D072B6FEE710B010BD0D4801689F
:1011000041F00101016041680B4A114041600168F2
:101110000A4A11400160016821F4802101604168A0
:1011200021F4FE0141604FF41F0181600449C003B6
:1011300008607047001002400000FFF8FFFFF6FE55
:1011400008ED00E0F0B50268164B174C174D4FF054
:101150008047984205D0B84203D0A04201D0A842AF
:1011600003D122F070064A683243984205D0B84253
:1011700003D0A04201D0A84203D122F44074CA682F
:1011800022434C6922F08002224302608A68C262D4
:101190000A688262984201D10969016301214161B3
:1011A000F0BD0000002C0140000400400008004099
:1011B00010B501F01F030121046A99408C430462B9
:1011C000016A9A401143016210BD10B5846842EA79
:1011D000032224F47F440A432243826010BD8268C4
:1011E00022F070020A4342F007018160704700005C
:1011F00030B5026A22F001020262026A4368846921
:1012000024F073050C682C4322F002058A682A43F7
:101210000A4DA8420BD122F00805CA6823F4407396
:101220002A434D6922F004021D438B692B4343601E
:10123000846149684163026230BD0000002C0140B6
:1012400030B5026A22F010020262026A43688469C1
:101250000D6824F4E64444EA05248D6822F0200257
:1012600042EA05120B4DA8420ED1CD6822F0800251
:1012700042EA05124D6923F4406343EA85038D6910
:1012800022F0400243EA8503436084614968816338
:10129000026230BD002C014030B5026A22F4807237
:1012A0000262036A4268C46923F4007324F0730580
:1012B0000C682C438D6843EA05230C4DA8420ED1DF
:1012C000CD6823F4006343EA05234D6922F44052BC
:1012D00042EA05128D6923F4806342EA05124260F6
:1012E000C4614968C163036230BD0000002C014045
:1012F00030B5026A22F480520262046A4268C3690D
:101300000D6823F4E64343EA05238D6824F4005472
:1013100044EA0534064DA84204D14D6922F48042C6
:1013200042EA85124260C36149680164046230BDCB
:10133000002C014010B5036A046A24F00104046221
:10134000846924F0F00444EA021423F00A020A43F8
:101350008461026210BD10B5036A23F010030362BA
:101360008369046A23F4704343EA023224F0A00341
:1013700043EA01118261016210BDFEE70907090E0F
:10138000002804DB00F1E02080F80014704700F032
:101390000F0000F1E02080F8141D7047FFF766F998
:1013A000FFF784FEFFF7F0FD114810494FF480422B
:1013B00001601049416000218160C0E90312416170
:1013C0008161C1610162FFF761F808B172B6FEE7A1
:1013D000FFF71AFE064800215430FFF7B7FD044915
:1013E0000A20543109684863FEE7000000540040B9
:1013F00010000020A0860100000000000000000096
:1014000001020304060708090000000001020304AA
:10141000301400080000002010000000280100081F
:101420004014000810000020F806000044010008E5
:101430000100000010000000000000000024F40083
:04000005080000ED02
:00000001FF
