:020000040800F2
:100000007006002089010008430B0008A50A0008BB
:10001000410B00088F020008E50B000800000000FB
:10002000000000000000000000000000470B000876
:100030009102000800000000450B0008490B000871
:10004000A3010008A3010008A3010008A301000800
:10005000A3010008A3010008A3010008A3010008F0
:10006000A3010008A3010008A3010008A3010008E0
:10007000A3010008A3010008A3010008A3010008D0
:10008000A3010008A3010008A3010008A3010008C0
:10009000A3010008A3010008A3010008A3010008B0
:1000A000A3010008A3010008A3010008A3010008A0
:1000B000A3010008A3010008A3010008A301000890
:1000C000A3010008A3010008A3010008A301000880
:1000D000A3010008A3010008A3010008A301000870
:1000E000A3010008A3010008A301000800F002F822
:1000F00000F03AF80AA090E8000C82448344AAF188
:100100000107DA4501D100F02FF8AFF2090EBAE885
:100110000F0013F0010F18BFFB1A43F0010318473B
:10012000E40E0000040F0000103A24BF78C878C124
:10013000FAD8520724BF30C830C144BF04680C60ED
:10014000704700000023002400250026103A28BF35
:1001500078C1FBD8520728BF30C148BF0B60704739
:100160001FB51FBD10B510BD00F058F81146FFF7C0
:10017000F7FF00F065FE00F076F803B4FFF7F2FF3A
:1001800003BC00F07DF8000009488047094800479B
:10019000FEE7FEE7FEE7FEE7FEE7FEE7FEE7FEE737
:1001A000FEE7FEE704480549054A064B7047000094
:1001B0009D0B0008ED000008700000207006002074
:1001C00070020020700200204FF0000200B51346BC
:1001D00094469646203922BFA0E80C50A0E80C5067
:1001E000B1F12001BFF4F7AF090728BFA0E80C5018
:1001F00048BF0CC05DF804EB890028BF40F8042B11
:1002000008BF704748BF20F8022B11F0804F18BF7D
:1002100000F8012B7047704770477047754600F033
:100220002BF8AE4605006946534620F00700854688
:1002300018B020B5FFF7B6FFBDE820404FF000062C
:100240004FF000074FF000084FF0000B21F00701BE
:10025000AC46ACE8C009ACE8C009ACE8C009ACE801
:10026000C0098D46704710B50446AFF300802046A4
:10027000BDE81040FFF781BF004870471000002024
:1002800001491820ABBEFEE7260002007047FEE7DA
:100290007047000070B5044600F004F90546601C84
:1002A00002D004480078044400F0FCF8401BA0424F
:1002B000FAD370BD000000202DE9F84FDFF8B891A7
:1002C000002409F1040A0AF1040B23460F270BF15D
:1002D000040EC9E00125A5402A40AA427DD1674EFF
:1002E000D1F804C0ACEB0608B44532D014DCBCF144
:1002F000030F3AD009DCBCF1000F2AD0BCF1010F8A
:100300001CD0BCF1020F31D11DE0BCF1110F17D090
:10031000BCF1120F2AD119E0B8F5881F19D006DCFC
:10032000B8F5803F15D0B8F5801F1FD111E0B8F5A2
:10033000001F0ED0B8F5041F18D10AE0CB6815E0F5
:10034000CB681B1D12E0CB6808330FE0CB680C3381
:100350000CE08B682BB1012B4FF0080303D04561F3
:1003600004E0042302E0056100E00023FF2A01D835
:10037000064601E000F104064FEA840501D9A5F123
:100380002005D6F8008007FA05FC28EA0C0803FAD5
:1003900005F548EA0508C6F800804D68ED0062D50D
:1003A000374DAE6946F00106AE61AD6924F0030633
:1003B00005F001050095334D06EB050CDCF80850FF
:1003C000A607360F07FA06F825EA0805DFF8B88011
:1003D000404503D14FF0000817E044E0DFF8AC805F
:1003E000404502D14FF001080FE0DFF8A4804045FE
:1003F00002D14FF0020808E0DFF89880404502D1B2
:100400004FF0030801E04FF0040808FA06F848EA44
:100410000508CCF808804D68D9F80060ED034D461A
:1004200001D5164300E096432E604D68DAF800606F
:10043000AD03554601D5164300E096432E604D6846
:10044000DBF80060ED025D4601D5164300E09643FF
:100450002E604D68DEF80060AD02754601D516438A
:1004600000E096432E60641C0D682A46E5407FF448
:1004700031AFBDE8F88F000000040140000011100A
:10048000001002400000014000080140000C014043
:1004900000100140001401400AB1016170470904D5
:1004A000FBE7000001488068704700000000002062
:1004B0000248816802781144816070470000002082
:1004C000074810B5016841F010010160032000F0F9
:1004D00067F80F2000F006F800F024F8002010BDA7
:1004E0000020024070B50D4D04464FF47A71287813
:1004F000B1FBF0F00A490968B1FBF0F000F0BEFA78
:1005000048B9102C07D200222146501E00F028F8CE
:1005100000206C6070BD012070BD00000000002054
:100520000C0000200C4808B5816941F0010181618F
:10053000816901F001010091C16941F08051C161FF
:10054000C06900F0805000900448416821F0E061EB
:1005500041F00071416008BD001002400000014000
:10056000F0B40E4B1B680C46C3F30223C3F107051E
:10057000042D00D90425191D072901D2002300E00C
:10058000DB1E012606FA05F1491E214099409E40D6
:10059000761E16403143F0BC00F025BB0CED00E0A8
:1005A000064900F0070208684FF6FF03184040EACA
:1005B0000220034A10430860704700000CED00E081
:1005C0000000FA052DE9F0470F46050061D0434EC3
:1005D000306800F00700B84209D2306820F0070008
:1005E00038433060306800F00700B84251D12868C5
:1005F0003B4C810712D5400703D5606840F4E060AA
:1006000060602878000703D5606840F4605060603F
:100610006068A96820F0F000084360602878C0078F
:1006200028D06868012810D02168022810D08907D6
:1006300000292EDA616821F0030101436160FFF7B0
:1006400031FF804641F288390DE021688903EFE7E8
:100650008901EDE7FFF726FFA0EB0801494502D924
:100660000320BDE8F0876068696800F00C00B0EB1B
:10067000810FEFD1306800F00700B8420BD9306825
:1006800020F0070038433060306800F00700B842BF
:1006900001D00120E5E72878400705D56068E968C2
:1006A00020F4E060084360602878000706D56068A1
:1006B000296920F4605040EAC100606000F018F839
:1006C0006168084AC1F30311515CC84006490860DB
:1006D00006480068FFF706FF0020C2E7002002403E
:1006E00000100240F40F00080C000020040000205D
:1006F00012A185B00FC98DE80F0014A0144A00683C
:1007000004905168134801F00C03042B10D0082BFF
:100710000ED1C1F38343C9031DF803000AD5516804
:1007200004AAC1F34041515C0A4A5043B0FBF1F0C6
:1007300005B0704708494843FAE700000203040582
:10074000060708090A0B0C0D0E0F1010010200001D
:100750000010024000127A0000093D002DE9F84F18
:10076000040070D02078C04DC00749D06868C0F33D
:100770008100012807D06868C0F38100022809D1F0
:100780006868C00306D52868800339D560680028EA
:10079000E7D035E06068B0F5803F0BD010B1B0F520
:1007A000A02F11D0286820F480302860286820F419
:1007B000802002E0286840F480302860606890B1B2
:1007C000FFF770FE06460AE0286840F480202860A3
:1007D000F0E700BFFFF766FE801B642873D8286827
:1007E0008003F7D50CE0FFF75DFE064605E000BF8D
:1007F000FFF758FE801B6428F0D828688003F7D4E0
:1008000020789A4E80074FF001094FF0000839D543
:10081000686810F00C0F07D06868C0F381000228E8
:1008200009D16868C00306D42868800714D52069F8
:10083000012808D110E02069B0B1C6F80090FFF798
:1008400031FE074605E00AE1FFF72CFEC01B022837
:10085000C4D828688007F7D52868616920F0F800B7
:1008600040EAC10028600DE0C6F80080FFF71AFEDC
:10087000074604E0FFF716FEC01B022823D82868AD
:100880008007F7D4207800072CD57948A169D9B121
:10089000C0F80090FFF706FE074604E0FFF702FEEF
:1008A000C01B02280FD8686A8007F7D571484FF43B
:1008B000FA510068B0FBF1F0009000BF0098411EB3
:1008C0000091FAD20EE080E0C0F80080FFF7EAFD68
:1008D000074604E0FFF7E6FDC01B022875D8686AEA
:1008E0008007F7D42078400760D5E8690027C0006A
:1008F00008D4E86940F08050E861E869012700F019
:10090000805000905C480168C90513D40168834693
:1009100041F480710160FFF7C5FD824606E000BF2B
:10092000FFF7C0FDA0EB0A0064284ED8DBF80000FA
:10093000C005F5D5E06801280AD008B1052813D014
:10094000286A20F001002862286A20F0040002E0F2
:10095000286A40F001002862E06841F2883B98B1C3
:10096000FFF7A0FD82460BE0286A40F004002862F1
:10097000EEE700BFFFF796FDA0EB0A0159455AD8F4
:10098000286A8007F6D50CE0FFF78CFD824605E06B
:10099000FFF788FDA0EB0A0159454CD8286A80076B
:1009A000F6D41FB1E86920F08050E861E06988B3AF
:1009B0006968C1F38101022944D00228C6F8608029
:1009C00004D0FFF76FFD044638E034E0FFF76AFD1E
:1009D000074604E0FFF766FDC01B02282BD82868F5
:1009E0008001F7D4206AB0F5803F05D16868A1681E
:1009F00020F4003008436860D4E9080108436968BE
:100A000021F4741108436860C6F86090FFF74AFD4E
:100A1000044606E025E000BFFFF744FD001B022866
:100A200009D828688001F7D51BE000BFFFF73AFD21
:100A3000001B022802D90320BDE8F88F2868800136
:100A4000F4D40EE00128F7D06868226A00F48031FF
:100A5000914204D1616A00F47010884201D00120F3
:100A6000EAE70020E8E700000010024000004242F0
:100A7000800442420C0000200070004010B5401E6F
:100A8000B0F1807F01D3012010BD4FF0E024606100
:100A90000F21601700F0A7F80020A0610720206157
:100AA000002010BDFEE700002DE9F04186B00024D3
:100AB00020480094019402940394816941F0040158
:100AC0008161816901F004010491816941F00801AB
:100AD00081618069184F00F008000490002241F6FF
:100AE000F8413846FFF7D8FCDFF8508000227F211C
:100AF0004046FFF7D1FC01224FF440713846FFF722
:100B0000CBFC41F6F87001250226CDE90005CDE9C0
:100B1000024669463846FFF7CFFB7F20CDE9000546
:100B2000CDE9024669464046FFF7C6FB06B0BDE880
:100B3000F08100000010024000080140000C01405C
:100B4000FEE7FEE770477047FFF7B2BC10B590B004
:100B500028216846FFF738FB14210AA8FFF734FB69
:100B6000022000900120049010200024059007949A
:100B70006846FFF7F3FD08B172B6FEE70F20CDE936
:100B80000A040C940D9400210AA80E94FFF71AFD94
:100B9000002801D072B6FEE710B010BD0D48016804
:100BA00041F00101016041680B4A11404160016858
:100BB0000A4A11400160016821F480210160416806
:100BC00021F4FE0141604FF41F0181600449C0031C
:100BD00008607047001002400000FFF8FFFFF6FEBB
:100BE00008ED00E0FEE70907090E002804DB00F12C
:100BF000E02080F80014704700F00F0000F1E020C2
:100C000080F8141D7047000010B55E4C0A287DD294
:100C1000DFE800F005070E29365662899FAB0122F6
:100C200098E0012240212046FFF736FC01222DE00A
:100C3000002240212046FFF72FFC012220212046E0
:100C4000FFF72AFC002210212046FFF725FC002296
:100C500008212046FFF720FC012204212046FFF74F
:100C60001BFC002254E0002240212046FFF714FC28
:100C7000012280E010212046FFF70EFC002262E0F6
:100C8000002240212046FFF707FC002220212046B9
:100C9000FFF702FC012210212046FFF7FDFB012295
:100CA00008212046FFF7F8FB002204212046FFF729
:100CB000F3FB002202212046FFF7EEFB01222CE08D
:100CC000002240212046FFF7E7FB0022202120469A
:100CD000FFF7E2FB01220AE0002240212046FFF755
:100CE000DBFB002220212046FFF7D6FB002210214B
:100CF0002046FFF7D1FB002208212046FFF7CCFB5E
:100D0000002204212046FFF7C7FB00E039E0012262
:100D100002212046FFF7C0FB00222046BDE810401C
:100D20000121FFF7B9BB012240212046FFF7B4FBA8
:100D3000012220212046FFF7AFFB0122102120468F
:100D4000FFF7AAFB012208212046FFF7A5FB00229E
:100D500083E7002240212046FFF79EFB002220214E
:100D60002046FFF799FB002284E70022402120461D
:100D7000FFF792FB002220212046FFF78DFB012286
:100D800078E710BD000C01402DE9F05F0A22B0FBAE
:100D9000F2F3B0FBF2FB02FB130AB1FBF2F0B1FB82
:100DA000F2F9264D02FB10180024AF156E15012232
:100DB00040212846FFF770FB4846FFF725FF0A2031
:100DC000FFF768FA002240212846FFF765FB012261
:100DD00080212846FFF760FB4046FFF715FF0A20F9
:100DE000FFF758FA002280212846FFF755FB012221
:100DF00039462846FFF750FB5846FFF705FF0A2003
:100E0000FFF748FA002239462846FFF745FB012242
:100E100031462846FFF740FB5046FFF7F5FE0A2013
:100E2000FFF738FA002231462846FFF735FB641CED
:100E3000E4B20F2CBBD3BDE8F09F000000080140D6
:100E4000FFF73EFBFFF782FEFFF72EFE684C002205
:100E500040212046FFF720FB002280212046FFF79B
:100E60001BFB0022A1152046FFF716FB002261158F
:100E70002046FFF711FB19251E264FF4806B01E079
:100E800019251E266D1E761EADB2B6B201225F4632
:100E900059462046FFF700FB4FF400680022414608
:100EA0002046FFF7F9FA4FF4805A002251462046B7
:100EB000FFF7F2FA002208212046FFF7EDFA01229F
:100EC00010212046FFF7E8FA002220212046FFF7F4
:100ED000E3FA31462846FFF757FF002DD2D1B94635
:100EE000052547462E46D0466D1E761EADB2B6B2DB
:100EF000002249462046FFF7CFFA00223946204615
:100F0000FFF7CAFA012241462046FFF7C5FA002240
:100F100008212046FFF7C0FA012210212046FFF7E2
:100F2000BBFA002220212046FFF7B6FA31462846B8
:100F3000FFF72AFF002DD7D11E26CB461925BA462A
:100F4000C146761E6D1EB6B2ADB200225F4659464E
:100F50002046FFF7A1FA0122D04651462046FFF76E
:100F60009BFA002249462046FFF796FA0122082103
:100F70002046FFF791FA002210212046FFF78CFA55
:100F8000002220212046FFF787FA29463046FFF746
:100F9000FBFE002DD5D10526BA4635464F46761EB6
:100FA0006D1EB6B2ADB2002251462046FFF774FA6C
:100FB000012241462046FFF76FFA002239462046BB
:100FC000FFF76AFA002208212046FFF765FA00229F
:100FD00010212046FFF760FA012220212046FFF76A
:100FE0005BFA29463046FFF7CFFE002DD7D147E701
:100FF000000801400000000000000000010203049E
:101000000607080924100008000000201000000056
:1010100028010008341000081000002060060000BD
:101020004401000801000000100000000000000062
:041030000024F400A4
:04000005080000ED02
:00000001FF
